{
  "contractName": "Color",
  "abi": [
    {
      "inputs": [],
      "stateMutability": "nonpayable",
      "type": "constructor"
    },
    {
      "anonymous": false,
      "inputs": [
        {
          "indexed": true,
          "internalType": "address",
          "name": "owner",
          "type": "address"
        },
        {
          "indexed": true,
          "internalType": "address",
          "name": "approved",
          "type": "address"
        },
        {
          "indexed": true,
          "internalType": "uint256",
          "name": "tokenId",
          "type": "uint256"
        }
      ],
      "name": "Approval",
      "type": "event"
    },
    {
      "anonymous": false,
      "inputs": [
        {
          "indexed": true,
          "internalType": "address",
          "name": "owner",
          "type": "address"
        },
        {
          "indexed": true,
          "internalType": "address",
          "name": "operator",
          "type": "address"
        },
        {
          "indexed": false,
          "internalType": "bool",
          "name": "approved",
          "type": "bool"
        }
      ],
      "name": "ApprovalForAll",
      "type": "event"
    },
    {
      "anonymous": false,
      "inputs": [
        {
          "indexed": true,
          "internalType": "address",
          "name": "from",
          "type": "address"
        },
        {
          "indexed": true,
          "internalType": "address",
          "name": "to",
          "type": "address"
        },
        {
          "indexed": true,
          "internalType": "uint256",
          "name": "tokenId",
          "type": "uint256"
        }
      ],
      "name": "Transfer",
      "type": "event"
    },
    {
      "inputs": [
        {
          "internalType": "address",
          "name": "to",
          "type": "address"
        },
        {
          "internalType": "uint256",
          "name": "tokenId",
          "type": "uint256"
        }
      ],
      "name": "approve",
      "outputs": [],
      "stateMutability": "nonpayable",
      "type": "function"
    },
    {
      "inputs": [
        {
          "internalType": "address",
          "name": "owner",
          "type": "address"
        }
      ],
      "name": "balanceOf",
      "outputs": [
        {
          "internalType": "uint256",
          "name": "",
          "type": "uint256"
        }
      ],
      "stateMutability": "view",
      "type": "function"
    },
    {
      "inputs": [],
      "name": "baseURI",
      "outputs": [
        {
          "internalType": "string",
          "name": "",
          "type": "string"
        }
      ],
      "stateMutability": "view",
      "type": "function"
    },
    {
      "inputs": [
        {
          "internalType": "uint256",
          "name": "",
          "type": "uint256"
        }
      ],
      "name": "colors",
      "outputs": [
        {
          "internalType": "string",
          "name": "",
          "type": "string"
        }
      ],
      "stateMutability": "view",
      "type": "function"
    },
    {
      "inputs": [
        {
          "internalType": "uint256",
          "name": "tokenId",
          "type": "uint256"
        }
      ],
      "name": "getApproved",
      "outputs": [
        {
          "internalType": "address",
          "name": "",
          "type": "address"
        }
      ],
      "stateMutability": "view",
      "type": "function"
    },
    {
      "inputs": [
        {
          "internalType": "address",
          "name": "owner",
          "type": "address"
        },
        {
          "internalType": "address",
          "name": "operator",
          "type": "address"
        }
      ],
      "name": "isApprovedForAll",
      "outputs": [
        {
          "internalType": "bool",
          "name": "",
          "type": "bool"
        }
      ],
      "stateMutability": "view",
      "type": "function"
    },
    {
      "inputs": [],
      "name": "name",
      "outputs": [
        {
          "internalType": "string",
          "name": "",
          "type": "string"
        }
      ],
      "stateMutability": "view",
      "type": "function"
    },
    {
      "inputs": [
        {
          "internalType": "uint256",
          "name": "tokenId",
          "type": "uint256"
        }
      ],
      "name": "ownerOf",
      "outputs": [
        {
          "internalType": "address",
          "name": "",
          "type": "address"
        }
      ],
      "stateMutability": "view",
      "type": "function"
    },
    {
      "inputs": [
        {
          "internalType": "address",
          "name": "from",
          "type": "address"
        },
        {
          "internalType": "address",
          "name": "to",
          "type": "address"
        },
        {
          "internalType": "uint256",
          "name": "tokenId",
          "type": "uint256"
        }
      ],
      "name": "safeTransferFrom",
      "outputs": [],
      "stateMutability": "nonpayable",
      "type": "function"
    },
    {
      "inputs": [
        {
          "internalType": "address",
          "name": "from",
          "type": "address"
        },
        {
          "internalType": "address",
          "name": "to",
          "type": "address"
        },
        {
          "internalType": "uint256",
          "name": "tokenId",
          "type": "uint256"
        },
        {
          "internalType": "bytes",
          "name": "_data",
          "type": "bytes"
        }
      ],
      "name": "safeTransferFrom",
      "outputs": [],
      "stateMutability": "nonpayable",
      "type": "function"
    },
    {
      "inputs": [
        {
          "internalType": "address",
          "name": "operator",
          "type": "address"
        },
        {
          "internalType": "bool",
          "name": "approved",
          "type": "bool"
        }
      ],
      "name": "setApprovalForAll",
      "outputs": [],
      "stateMutability": "nonpayable",
      "type": "function"
    },
    {
      "inputs": [
        {
          "internalType": "bytes4",
          "name": "interfaceId",
          "type": "bytes4"
        }
      ],
      "name": "supportsInterface",
      "outputs": [
        {
          "internalType": "bool",
          "name": "",
          "type": "bool"
        }
      ],
      "stateMutability": "view",
      "type": "function"
    },
    {
      "inputs": [],
      "name": "symbol",
      "outputs": [
        {
          "internalType": "string",
          "name": "",
          "type": "string"
        }
      ],
      "stateMutability": "view",
      "type": "function"
    },
    {
      "inputs": [
        {
          "internalType": "uint256",
          "name": "index",
          "type": "uint256"
        }
      ],
      "name": "tokenByIndex",
      "outputs": [
        {
          "internalType": "uint256",
          "name": "",
          "type": "uint256"
        }
      ],
      "stateMutability": "view",
      "type": "function"
    },
    {
      "inputs": [
        {
          "internalType": "address",
          "name": "owner",
          "type": "address"
        },
        {
          "internalType": "uint256",
          "name": "index",
          "type": "uint256"
        }
      ],
      "name": "tokenOfOwnerByIndex",
      "outputs": [
        {
          "internalType": "uint256",
          "name": "",
          "type": "uint256"
        }
      ],
      "stateMutability": "view",
      "type": "function"
    },
    {
      "inputs": [
        {
          "internalType": "uint256",
          "name": "tokenId",
          "type": "uint256"
        }
      ],
      "name": "tokenURI",
      "outputs": [
        {
          "internalType": "string",
          "name": "",
          "type": "string"
        }
      ],
      "stateMutability": "view",
      "type": "function"
    },
    {
      "inputs": [],
      "name": "totalSupply",
      "outputs": [
        {
          "internalType": "uint256",
          "name": "",
          "type": "uint256"
        }
      ],
      "stateMutability": "view",
      "type": "function"
    },
    {
      "inputs": [
        {
          "internalType": "address",
          "name": "from",
          "type": "address"
        },
        {
          "internalType": "address",
          "name": "to",
          "type": "address"
        },
        {
          "internalType": "uint256",
          "name": "tokenId",
          "type": "uint256"
        }
      ],
      "name": "transferFrom",
      "outputs": [],
      "stateMutability": "nonpayable",
      "type": "function"
    },
    {
      "inputs": [
        {
          "internalType": "string",
          "name": "_color",
          "type": "string"
        }
      ],
      "name": "mint",
      "outputs": [],
      "stateMutability": "nonpayable",
      "type": "function"
    }
  ],
  "bytecode": "0x60806040523480156200001157600080fd5b506040518060400160405280600581526020017f436f6c6f720000000000000000000000000000000000000000000000000000008152506040518060400160405280600581526020017f434f4c4f52000000000000000000000000000000000000000000000000000000815250620000966301ffc9a760e01b6200011860201b60201c565b8160069080519060200190620000ae92919062000221565b508060079080519060200190620000c792919062000221565b50620000e06380ac58cd60e01b6200011860201b60201c565b620000f8635b5e139f60e01b6200011860201b60201c565b6200011063780e9d6360e01b6200011860201b60201c565b5050620002c7565b63ffffffff60e01b817bffffffffffffffffffffffffffffffffffffffffffffffffffffffff19161415620001b5576040517f08c379a000000000000000000000000000000000000000000000000000000000815260040180806020018281038252601c8152602001807f4552433136353a20696e76616c696420696e746572666163652069640000000081525060200191505060405180910390fd5b6001600080837bffffffffffffffffffffffffffffffffffffffffffffffffffffffff19167bffffffffffffffffffffffffffffffffffffffffffffffffffffffff1916815260200190815260200160002060006101000a81548160ff02191690831515021790555050565b828054600181600116156101000203166002900490600052602060002090601f016020900481019282601f106200026457805160ff191683800117855562000295565b8280016001018555821562000295579182015b828111156200029457825182559160200191906001019062000277565b5b509050620002a49190620002a8565b5090565b5b80821115620002c3576000816000905550600101620002a9565b5090565b612d4180620002d76000396000f3fe608060405234801561001057600080fd5b50600436106101215760003560e01c80636352211e116100ad578063b88d4fde11610071578063b88d4fde14610656578063bd11f69d1461075b578063c87b56dd14610802578063d85d3d27146108a9578063e985e9c51461096457610121565b80636352211e146104505780636c0360eb146104a857806370a082311461052b57806395d89b4114610583578063a22cb4651461060657610121565b806318160ddd116100f457806318160ddd146102b257806323b872dd146102d05780632f745c591461033e57806342842e0e146103a05780634f6ccce71461040e57610121565b806301ffc9a71461012657806306fdde0314610189578063081812fc1461020c578063095ea7b314610264575b600080fd5b6101716004803603602081101561013c57600080fd5b8101908080357bffffffffffffffffffffffffffffffffffffffffffffffffffffffff191690602001909291905050506109de565b60405180821515815260200191505060405180910390f35b610191610a45565b6040518080602001828103825283818151815260200191508051906020019080838360005b838110156101d15780820151818401526020810190506101b6565b50505050905090810190601f1680156101fe5780820380516001836020036101000a031916815260200191505b509250505060405180910390f35b6102386004803603602081101561022257600080fd5b8101908080359060200190929190505050610ae7565b604051808273ffffffffffffffffffffffffffffffffffffffff16815260200191505060405180910390f35b6102b06004803603604081101561027a57600080fd5b81019080803573ffffffffffffffffffffffffffffffffffffffff16906020019092919080359060200190929190505050610b82565b005b6102ba610cc6565b6040518082815260200191505060405180910390f35b61033c600480360360608110156102e657600080fd5b81019080803573ffffffffffffffffffffffffffffffffffffffff169060200190929190803573ffffffffffffffffffffffffffffffffffffffff16906020019092919080359060200190929190505050610cd7565b005b61038a6004803603604081101561035457600080fd5b81019080803573ffffffffffffffffffffffffffffffffffffffff16906020019092919080359060200190929190505050610d4d565b6040518082815260200191505060405180910390f35b61040c600480360360608110156103b657600080fd5b81019080803573ffffffffffffffffffffffffffffffffffffffff169060200190929190803573ffffffffffffffffffffffffffffffffffffffff16906020019092919080359060200190929190505050610da8565b005b61043a6004803603602081101561042457600080fd5b8101908080359060200190929190505050610dc8565b6040518082815260200191505060405180910390f35b61047c6004803603602081101561046657600080fd5b8101908080359060200190929190505050610deb565b604051808273ffffffffffffffffffffffffffffffffffffffff16815260200191505060405180910390f35b6104b0610e22565b6040518080602001828103825283818151815260200191508051906020019080838360005b838110156104f05780820151818401526020810190506104d5565b50505050905090810190601f16801561051d5780820380516001836020036101000a031916815260200191505b509250505060405180910390f35b61056d6004803603602081101561054157600080fd5b81019080803573ffffffffffffffffffffffffffffffffffffffff169060200190929190505050610ec4565b6040518082815260200191505060405180910390f35b61058b610f99565b6040518080602001828103825283818151815260200191508051906020019080838360005b838110156105cb5780820151818401526020810190506105b0565b50505050905090810190601f1680156105f85780820380516001836020036101000a031916815260200191505b509250505060405180910390f35b6106546004803603604081101561061c57600080fd5b81019080803573ffffffffffffffffffffffffffffffffffffffff16906020019092919080351515906020019092919050505061103b565b005b6107596004803603608081101561066c57600080fd5b81019080803573ffffffffffffffffffffffffffffffffffffffff169060200190929190803573ffffffffffffffffffffffffffffffffffffffff16906020019092919080359060200190929190803590602001906401000000008111156106d357600080fd5b8201836020820111156106e557600080fd5b8035906020019184600183028401116401000000008311171561070757600080fd5b91908080601f016020809104026020016040519081016040528093929190818152602001838380828437600081840152601f19601f8201169050808301925050505050505091929192905050506111f1565b005b6107876004803603602081101561077157600080fd5b8101908080359060200190929190505050611269565b6040518080602001828103825283818151815260200191508051906020019080838360005b838110156107c75780820151818401526020810190506107ac565b50505050905090810190601f1680156107f45780820380516001836020036101000a031916815260200191505b509250505060405180910390f35b61082e6004803603602081101561081857600080fd5b8101908080359060200190929190505050611322565b6040518080602001828103825283818151815260200191508051906020019080838360005b8381101561086e578082015181840152602081019050610853565b50505050905090810190601f16801561089b5780820380516001836020036101000a031916815260200191505b509250505060405180910390f35b610962600480360360208110156108bf57600080fd5b81019080803590602001906401000000008111156108dc57600080fd5b8201836020820111156108ee57600080fd5b8035906020019184600183028401116401000000008311171561091057600080fd5b91908080601f016020809104026020016040519081016040528093929190818152602001838380828437600081840152601f19601f8201169050808301925050505050505091929192905050506115f3565b005b6109c66004803603604081101561097a57600080fd5b81019080803573ffffffffffffffffffffffffffffffffffffffff169060200190929190803573ffffffffffffffffffffffffffffffffffffffff16906020019092919050505061174d565b60405180821515815260200191505060405180910390f35b6000806000837bffffffffffffffffffffffffffffffffffffffffffffffffffffffff19167bffffffffffffffffffffffffffffffffffffffffffffffffffffffff1916815260200190815260200160002060009054906101000a900460ff169050919050565b606060068054600181600116156101000203166002900480601f016020809104026020016040519081016040528092919081815260200182805460018160011615610100020316600290048015610add5780601f10610ab257610100808354040283529160200191610add565b820191906000526020600020905b815481529060010190602001808311610ac057829003601f168201915b5050505050905090565b6000610af2826117e1565b610b47576040517f08c379a000000000000000000000000000000000000000000000000000000000815260040180806020018281038252602c815260200180612c36602c913960400191505060405180910390fd5b6004600083815260200190815260200160002060009054906101000a900473ffffffffffffffffffffffffffffffffffffffff169050919050565b6000610b8d82610deb565b90508073ffffffffffffffffffffffffffffffffffffffff168373ffffffffffffffffffffffffffffffffffffffff161415610c14576040517f08c379a0000000000000000000000000000000000000000000000000000000008152600401808060200182810382526021815260200180612cba6021913960400191505060405180910390fd5b8073ffffffffffffffffffffffffffffffffffffffff16610c336117fe565b73ffffffffffffffffffffffffffffffffffffffff161480610c625750610c6181610c5c6117fe565b61174d565b5b610cb7576040517f08c379a0000000000000000000000000000000000000000000000000000000008152600401808060200182810382526038815260200180612b896038913960400191505060405180910390fd5b610cc18383611806565b505050565b6000610cd260026118bf565b905090565b610ce8610ce26117fe565b826118d4565b610d3d576040517f08c379a0000000000000000000000000000000000000000000000000000000008152600401808060200182810382526031815260200180612cdb6031913960400191505060405180910390fd5b610d488383836119c8565b505050565b6000610da082600160008673ffffffffffffffffffffffffffffffffffffffff1673ffffffffffffffffffffffffffffffffffffffff168152602001908152602001600020611c0b90919063ffffffff16565b905092915050565b610dc3838383604051806020016040528060008152506111f1565b505050565b600080610ddf836002611c2590919063ffffffff16565b50905080915050919050565b6000610e1b82604051806060016040528060298152602001612beb602991396002611c519092919063ffffffff16565b9050919050565b606060098054600181600116156101000203166002900480601f016020809104026020016040519081016040528092919081815260200182805460018160011615610100020316600290048015610eba5780601f10610e8f57610100808354040283529160200191610eba565b820191906000526020600020905b815481529060010190602001808311610e9d57829003601f168201915b5050505050905090565b60008073ffffffffffffffffffffffffffffffffffffffff168273ffffffffffffffffffffffffffffffffffffffff161415610f4b576040517f08c379a000000000000000000000000000000000000000000000000000000000815260040180806020018281038252602a815260200180612bc1602a913960400191505060405180910390fd5b610f92600160008473ffffffffffffffffffffffffffffffffffffffff1673ffffffffffffffffffffffffffffffffffffffff168152602001908152602001600020611c70565b9050919050565b606060078054600181600116156101000203166002900480601f0160208091040260200160405190810160405280929190818152602001828054600181600116156101000203166002900480156110315780601f1061100657610100808354040283529160200191611031565b820191906000526020600020905b81548152906001019060200180831161101457829003601f168201915b5050505050905090565b6110436117fe565b73ffffffffffffffffffffffffffffffffffffffff168273ffffffffffffffffffffffffffffffffffffffff1614156110e4576040517f08c379a00000000000000000000000000000000000000000000000000000000081526004018080602001828103825260198152602001807f4552433732313a20617070726f766520746f2063616c6c65720000000000000081525060200191505060405180910390fd5b80600560006110f16117fe565b73ffffffffffffffffffffffffffffffffffffffff1673ffffffffffffffffffffffffffffffffffffffff16815260200190815260200160002060008473ffffffffffffffffffffffffffffffffffffffff1673ffffffffffffffffffffffffffffffffffffffff16815260200190815260200160002060006101000a81548160ff0219169083151502179055508173ffffffffffffffffffffffffffffffffffffffff1661119e6117fe565b73ffffffffffffffffffffffffffffffffffffffff167f17307eab39ab6107e8899845ad3d59bd9653f200f220920489ca2b5937696c318360405180821515815260200191505060405180910390a35050565b6112026111fc6117fe565b836118d4565b611257576040517f08c379a0000000000000000000000000000000000000000000000000000000008152600401808060200182810382526031815260200180612cdb6031913960400191505060405180910390fd5b61126384848484611c85565b50505050565b600a818154811061127657fe5b906000526020600020016000915090508054600181600116156101000203166002900480601f01602080910402602001604051908101604052809291908181526020018280546001816001161561010002031660029004801561131a5780601f106112ef5761010080835404028352916020019161131a565b820191906000526020600020905b8154815290600101906020018083116112fd57829003601f168201915b505050505081565b606061132d826117e1565b611382576040517f08c379a000000000000000000000000000000000000000000000000000000000815260040180806020018281038252602f815260200180612c8b602f913960400191505060405180910390fd5b6060600860008481526020019081526020016000208054600181600116156101000203166002900480601f01602080910402602001604051908101604052809291908181526020018280546001816001161561010002031660029004801561142b5780601f106114005761010080835404028352916020019161142b565b820191906000526020600020905b81548152906001019060200180831161140e57829003601f168201915b50505050509050606061143c610e22565b90506000815114156114525781925050506115ee565b6000825111156115235780826040516020018083805190602001908083835b602083106114945780518252602082019150602081019050602083039250611471565b6001836020036101000a03801982511681845116808217855250505050505090500182805190602001908083835b602083106114e557805182526020820191506020810190506020830392506114c2565b6001836020036101000a03801982511681845116808217855250505050505090500192505050604051602081830303815290604052925050506115ee565b8061152d85611cf7565b6040516020018083805190602001908083835b602083106115635780518252602082019150602081019050602083039250611540565b6001836020036101000a03801982511681845116808217855250505050505090500182805190602001908083835b602083106115b45780518252602082019150602081019050602083039250611591565b6001836020036101000a03801982511681845116808217855250505050505090500192505050604051602081830303815290604052925050505b919050565b600b816040518082805190602001908083835b602083106116295780518252602082019150602081019050602083039250611606565b6001836020036101000a038019825116818451168082178552505050505050905001915050908152602001604051809103902060009054906101000a900460ff161561167457600080fd5b600a819080600181540180825580915050600190039060005260206000200160009091909190915090805190602001906116af929190612a21565b5060006001600a805490500390506116c73382611e3e565b6001600b836040518082805190602001908083835b602083106116ff57805182526020820191506020810190506020830392506116dc565b6001836020036101000a038019825116818451168082178552505050505050905001915050908152602001604051809103902060006101000a81548160ff0219169083151502179055505050565b6000600560008473ffffffffffffffffffffffffffffffffffffffff1673ffffffffffffffffffffffffffffffffffffffff16815260200190815260200160002060008373ffffffffffffffffffffffffffffffffffffffff1673ffffffffffffffffffffffffffffffffffffffff16815260200190815260200160002060009054906101000a900460ff16905092915050565b60006117f782600261203290919063ffffffff16565b9050919050565b600033905090565b816004600083815260200190815260200160002060006101000a81548173ffffffffffffffffffffffffffffffffffffffff021916908373ffffffffffffffffffffffffffffffffffffffff160217905550808273ffffffffffffffffffffffffffffffffffffffff1661187983610deb565b73ffffffffffffffffffffffffffffffffffffffff167f8c5be1e5ebec7d5bd14f71427d1e84f3dd0314c0f7b2291e5b200ac8c7c3b92560405160405180910390a45050565b60006118cd8260000161204c565b9050919050565b60006118df826117e1565b611934576040517f08c379a000000000000000000000000000000000000000000000000000000000815260040180806020018281038252602c815260200180612b5d602c913960400191505060405180910390fd5b600061193f83610deb565b90508073ffffffffffffffffffffffffffffffffffffffff168473ffffffffffffffffffffffffffffffffffffffff1614806119ae57508373ffffffffffffffffffffffffffffffffffffffff1661199684610ae7565b73ffffffffffffffffffffffffffffffffffffffff16145b806119bf57506119be818561174d565b5b91505092915050565b8273ffffffffffffffffffffffffffffffffffffffff166119e882610deb565b73ffffffffffffffffffffffffffffffffffffffff1614611a54576040517f08c379a0000000000000000000000000000000000000000000000000000000008152600401808060200182810382526029815260200180612c626029913960400191505060405180910390fd5b600073ffffffffffffffffffffffffffffffffffffffff168273ffffffffffffffffffffffffffffffffffffffff161415611ada576040517f08c379a0000000000000000000000000000000000000000000000000000000008152600401808060200182810382526024815260200180612b136024913960400191505060405180910390fd5b611ae583838361205d565b611af0600082611806565b611b4181600160008673ffffffffffffffffffffffffffffffffffffffff1673ffffffffffffffffffffffffffffffffffffffff16815260200190815260200160002061206290919063ffffffff16565b50611b9381600160008573ffffffffffffffffffffffffffffffffffffffff1673ffffffffffffffffffffffffffffffffffffffff16815260200190815260200160002061207c90919063ffffffff16565b50611baa818360026120969092919063ffffffff16565b50808273ffffffffffffffffffffffffffffffffffffffff168473ffffffffffffffffffffffffffffffffffffffff167fddf252ad1be2c89b69c2b068fc378daa952ba7f163c4a11628f55a4df523b3ef60405160405180910390a4505050565b6000611c1a83600001836120cb565b60001c905092915050565b600080600080611c38866000018661214e565b915091508160001c8160001c9350935050509250929050565b6000611c64846000018460001b846121e7565b60001c90509392505050565b6000611c7e826000016122dd565b9050919050565b611c908484846119c8565b611c9c848484846122ee565b611cf1576040517f08c379a0000000000000000000000000000000000000000000000000000000008152600401808060200182810382526032815260200180612ae16032913960400191505060405180910390fd5b50505050565b60606000821415611d3f576040518060400160405280600181526020017f30000000000000000000000000000000000000000000000000000000000000008152509050611e39565b600082905060005b60008214611d69578080600101915050600a8281611d6157fe5b049150611d47565b60608167ffffffffffffffff81118015611d8257600080fd5b506040519080825280601f01601f191660200182016040528015611db55781602001600182028036833780820191505090505b50905060006001830390508593505b60008414611e3157600a8481611dd657fe5b0660300160f81b82828060019003935081518110611df057fe5b60200101907effffffffffffffffffffffffffffffffffffffffffffffffffffffffffffff1916908160001a905350600a8481611e2957fe5b049350611dc4565b819450505050505b919050565b600073ffffffffffffffffffffffffffffffffffffffff168273ffffffffffffffffffffffffffffffffffffffff161415611ee1576040517f08c379a00000000000000000000000000000000000000000000000000000000081526004018080602001828103825260208152602001807f4552433732313a206d696e7420746f20746865207a65726f206164647265737381525060200191505060405180910390fd5b611eea816117e1565b15611f5d576040517f08c379a000000000000000000000000000000000000000000000000000000000815260040180806020018281038252601c8152602001807f4552433732313a20746f6b656e20616c7265616479206d696e7465640000000081525060200191505060405180910390fd5b611f696000838361205d565b611fba81600160008573ffffffffffffffffffffffffffffffffffffffff1673ffffffffffffffffffffffffffffffffffffffff16815260200190815260200160002061207c90919063ffffffff16565b50611fd1818360026120969092919063ffffffff16565b50808273ffffffffffffffffffffffffffffffffffffffff16600073ffffffffffffffffffffffffffffffffffffffff167fddf252ad1be2c89b69c2b068fc378daa952ba7f163c4a11628f55a4df523b3ef60405160405180910390a45050565b6000612044836000018360001b612507565b905092915050565b600081600001805490509050919050565b505050565b6000612074836000018360001b61252a565b905092915050565b600061208e836000018360001b612612565b905092915050565b60006120c2846000018460001b8473ffffffffffffffffffffffffffffffffffffffff1660001b612682565b90509392505050565b60008183600001805490501161212c576040517f08c379a0000000000000000000000000000000000000000000000000000000008152600401808060200182810382526022815260200180612abf6022913960400191505060405180910390fd5b82600001828154811061213b57fe5b9060005260206000200154905092915050565b600080828460000180549050116121b0576040517f08c379a0000000000000000000000000000000000000000000000000000000008152600401808060200182810382526022815260200180612c146022913960400191505060405180910390fd5b60008460000184815481106121c157fe5b906000526020600020906002020190508060000154816001015492509250509250929050565b600080846001016000858152602001908152602001600020549050600081141583906122ae576040517f08c379a00000000000000000000000000000000000000000000000000000000081526004018080602001828103825283818151815260200191508051906020019080838360005b83811015612273578082015181840152602081019050612258565b50505050905090810190601f1680156122a05780820380516001836020036101000a031916815260200191505b509250505060405180910390fd5b508460000160018203815481106122c157fe5b9060005260206000209060020201600101549150509392505050565b600081600001805490509050919050565b600061230f8473ffffffffffffffffffffffffffffffffffffffff1661275e565b61231c57600190506124ff565b606061248663150b7a0260e01b6123316117fe565b888787604051602401808573ffffffffffffffffffffffffffffffffffffffff1681526020018473ffffffffffffffffffffffffffffffffffffffff16815260200183815260200180602001828103825283818151815260200191508051906020019080838360005b838110156123b557808201518184015260208101905061239a565b50505050905090810190601f1680156123e25780820380516001836020036101000a031916815260200191505b5095505050505050604051602081830303815290604052907bffffffffffffffffffffffffffffffffffffffffffffffffffffffff19166020820180517bffffffffffffffffffffffffffffffffffffffffffffffffffffffff8381831617835250505050604051806060016040528060328152602001612ae1603291398773ffffffffffffffffffffffffffffffffffffffff166127719092919063ffffffff16565b9050600081806020019051602081101561249f57600080fd5b8101908080519060200190929190505050905063150b7a0260e01b7bffffffffffffffffffffffffffffffffffffffffffffffffffffffff1916817bffffffffffffffffffffffffffffffffffffffffffffffffffffffff191614925050505b949350505050565b600080836001016000848152602001908152602001600020541415905092915050565b60008083600101600084815260200190815260200160002054905060008114612606576000600182039050600060018660000180549050039050600086600001828154811061257557fe5b906000526020600020015490508087600001848154811061259257fe5b90600052602060002001819055506001830187600101600083815260200190815260200160002081905550866000018054806125ca57fe5b6001900381819060005260206000200160009055905586600101600087815260200190815260200160002060009055600194505050505061260c565b60009150505b92915050565b600061261e8383612789565b61267757826000018290806001815401808255809150506001900390600052602060002001600090919091909150558260000180549050836001016000848152602001908152602001600020819055506001905061267c565b600090505b92915050565b600080846001016000858152602001908152602001600020549050600081141561272957846000016040518060400160405280868152602001858152509080600181540180825580915050600190039060005260206000209060020201600090919091909150600082015181600001556020820151816001015550508460000180549050856001016000868152602001908152602001600020819055506001915050612757565b8285600001600183038154811061273c57fe5b90600052602060002090600202016001018190555060009150505b9392505050565b600080823b905060008111915050919050565b606061278084846000856127ac565b90509392505050565b600080836001016000848152602001908152602001600020541415905092915050565b606082471015612807576040517f08c379a0000000000000000000000000000000000000000000000000000000008152600401808060200182810382526026815260200180612b376026913960400191505060405180910390fd5b6128108561275e565b612882576040517f08c379a000000000000000000000000000000000000000000000000000000000815260040180806020018281038252601d8152602001807f416464726573733a2063616c6c20746f206e6f6e2d636f6e747261637400000081525060200191505060405180910390fd5b600060608673ffffffffffffffffffffffffffffffffffffffff1685876040518082805190602001908083835b602083106128d257805182526020820191506020810190506020830392506128af565b6001836020036101000a03801982511681845116808217855250505050505090500191505060006040518083038185875af1925050503d8060008114612934576040519150601f19603f3d011682016040523d82523d6000602084013e612939565b606091505b5091509150612949828286612955565b92505050949350505050565b6060831561296557829050612a1a565b6000835111156129785782518084602001fd5b816040517f08c379a00000000000000000000000000000000000000000000000000000000081526004018080602001828103825283818151815260200191508051906020019080838360005b838110156129df5780820151818401526020810190506129c4565b50505050905090810190601f168015612a0c5780820380516001836020036101000a031916815260200191505b509250505060405180910390fd5b9392505050565b828054600181600116156101000203166002900490600052602060002090601f016020900481019282601f10612a6257805160ff1916838001178555612a90565b82800160010185558215612a90579182015b82811115612a8f578251825591602001919060010190612a74565b5b509050612a9d9190612aa1565b5090565b5b80821115612aba576000816000905550600101612aa2565b509056fe456e756d657261626c655365743a20696e646578206f7574206f6620626f756e64734552433732313a207472616e7366657220746f206e6f6e20455243373231526563656976657220696d706c656d656e7465724552433732313a207472616e7366657220746f20746865207a65726f2061646472657373416464726573733a20696e73756666696369656e742062616c616e636520666f722063616c6c4552433732313a206f70657261746f7220717565727920666f72206e6f6e6578697374656e7420746f6b656e4552433732313a20617070726f76652063616c6c6572206973206e6f74206f776e6572206e6f7220617070726f76656420666f7220616c6c4552433732313a2062616c616e636520717565727920666f7220746865207a65726f20616464726573734552433732313a206f776e657220717565727920666f72206e6f6e6578697374656e7420746f6b656e456e756d657261626c654d61703a20696e646578206f7574206f6620626f756e64734552433732313a20617070726f76656420717565727920666f72206e6f6e6578697374656e7420746f6b656e4552433732313a207472616e73666572206f6620746f6b656e2074686174206973206e6f74206f776e4552433732314d657461646174613a2055524920717565727920666f72206e6f6e6578697374656e7420746f6b656e4552433732313a20617070726f76616c20746f2063757272656e74206f776e65724552433732313a207472616e736665722063616c6c6572206973206e6f74206f776e6572206e6f7220617070726f766564a2646970667358221220a8069a27429cd2a18174398bc80c12aafda7c5f2ea87cb7846908f580581360b64736f6c63430007000033",
  "source": "pragma solidity >=0.6.0 <0.8.0;\n\nimport \"./ERC721.sol\";\n\ncontract Color is ERC721 {\n\n    string[] public colors; //array storing all the deployed colors\n    mapping(string => bool) _colorExists; // another mapping array for knowing if the color is taken or not\n\n\n    // constructor(name, symbol)\n    constructor() ERC721(\"Color\", \"COLOR\") public {\n    }\n\n    function mint(string memory _color) public {\n\n        // require UNIQUE Color (non fung)\n        require(!_colorExists[_color]);\n\n        // passed in color -> add and track\n        colors.push(_color);\n        uint _id = colors.length-1;\n\n        // call mint function\n        _mint(msg.sender, _id);\n\n        // Color - track its existence\n        _colorExists[_color] = true;\n    }\n\n\n\n\n\n\n\n}",
  "sourcePath": "/Users/scar/nft-contract/src/contracts/Color.sol",
  "compiler": {
    "name": "solc",
    "version": "0.7.0+commit.9e61f92b.Emscripten.clang"
  },
  "schemaVersion": "3.0.20",
  "updatedAt": "2021-04-24T07:14:53.991Z",
  "devdoc": {
    "kind": "dev",
    "methods": {
      "approve(address,uint256)": {
        "details": "See {IERC721-approve}."
      },
      "balanceOf(address)": {
        "details": "See {IERC721-balanceOf}."
      },
      "baseURI()": {
        "details": "Returns the base URI set via {_setBaseURI}. This will be automatically added as a prefix in {tokenURI} to each token's URI, or to the token ID if no specific URI is set for that token ID."
      },
      "getApproved(uint256)": {
        "details": "See {IERC721-getApproved}."
      },
      "isApprovedForAll(address,address)": {
        "details": "See {IERC721-isApprovedForAll}."
      },
      "name()": {
        "details": "See {IERC721Metadata-name}."
      },
      "ownerOf(uint256)": {
        "details": "See {IERC721-ownerOf}."
      },
      "safeTransferFrom(address,address,uint256)": {
        "details": "See {IERC721-safeTransferFrom}."
      },
      "safeTransferFrom(address,address,uint256,bytes)": {
        "details": "See {IERC721-safeTransferFrom}."
      },
      "setApprovalForAll(address,bool)": {
        "details": "See {IERC721-setApprovalForAll}."
      },
      "supportsInterface(bytes4)": {
        "details": "See {IERC165-supportsInterface}. Time complexity O(1), guaranteed to always use less than 30 000 gas."
      },
      "symbol()": {
        "details": "See {IERC721Metadata-symbol}."
      },
      "tokenByIndex(uint256)": {
        "details": "See {IERC721Enumerable-tokenByIndex}."
      },
      "tokenOfOwnerByIndex(address,uint256)": {
        "details": "See {IERC721Enumerable-tokenOfOwnerByIndex}."
      },
      "tokenURI(uint256)": {
        "details": "See {IERC721Metadata-tokenURI}."
      },
      "totalSupply()": {
        "details": "See {IERC721Enumerable-totalSupply}."
      },
      "transferFrom(address,address,uint256)": {
        "details": "See {IERC721-transferFrom}."
      }
    },
    "version": 1
  },
  "userdoc": {
    "kind": "user",
    "methods": {},
    "version": 1
  }
}